:020000040800F2
:10000000E808002049010008BD1E0008BF1E0008C6
:10001000C31E0008C71E0008CB1E00080000000019
:10002000000000000000000000000000CF1E0008DB
:10003000D11E000800000000D31E0008D51E0008D5
:100040006301000863010008630100086301000800
:1000500063010008630100086301000863010008F0
:1000600063010008630100086301000863010008E0
:1000700063010008630100086301000863010008D0
:1000800063010008630100086301000863010008C0
:1000900063010008630100086301000863010008B0
:1000A00063010008630100086301000863010008A0
:1000B000511F000863010008630100086301000884
:1000C0006301000863010008630100086301000880
:1000D00063010008DD1E000863010008DF1E000840
:1000E0006301000863010008630100086301000860
:1000F0006301000863010008630100086301000850
:10010000630100086301000863010008630100083F
:10011000630100086301000863010008630100082F
:10012000630100086301000863010008630100081F
:10013000DFF810D003F0AEFC004800475F1D000858
:10014000AFF30080E80800200648804706480047D3
:10015000FEE7FEE7FEE7FEE7FEE7FEE7FEE7FEE777
:10016000FEE7FEE74B020008310100080CB5002055
:10017000019000906C48006840F480306A49086043
:1001800000BF6948006800F4003000900198401CEE
:100190000190009818B90198B0F5A06FF1D16248AC
:1001A000006800F4003010B10120009001E0002050
:1001B00000900098012843D15C48006840F010008E
:1001C0005A4908600846006820F0030008600846A5
:1001D000006840F002000860534840685249486097
:1001E0000846406848600846406840F480604860BF
:1001F0000846406820F47C1048600846406840F497
:10020000E81048600846006840F08070086000BF51
:100210004548006800F000700028F9D04248406866
:1002200020F00300404948600846406840F0020062
:10023000486000BF3C48406800F00C000828F9D135
:100240000CBD10B5FFF792FF10BD10B53648006821
:1002500040F00100344908600846406834490840CD
:100260003149486008460068324908402E49086014
:100270000846006820F4802008600846406820F4A2
:10028000FE0048604FF41F008860FFF7DAFF4FF070
:1002900000602949086010BD10B50021002000222F
:1002A000214B5B6803F00C0121B1042906D0082919
:1002B00028D107E0214B224C236027E01F4B204C24
:1002C000236023E0184B5B6803F47010164B5B68E7
:1002D00003F48032022303EB904022B9194B4343CD
:1002E000174C23600DE0104B5B6803F4003323B11F
:1002F000144B4343124C236003E0104B4343104C18
:10030000236003E00D4B0E4C236000BF00BF064B83
:100310005B68C3F303130C4CE15C094B1B68CB40D7
:10032000074C236010BD0000001002400020024076
:100330000000FFF8FFFFF6FE08ED00E000127A0073
:100340000000002000093D00040000203149014365
:10035000314A1160704770B5002100230F22C47824
:1003600004B32D4C246804F4E064C4F5E064210A6D
:10037000C1F10403CA40447804FA03F184781440BC
:1003800021430901254C0678A155047804F01F0586
:100390000124AC4005786D11AD0005F1E025C5F8EC
:1003A000004109E0047804F01F050124AC401C4D15
:1003B0000678761145F8264070BD1A4A0A40024375
:1003C000154B1B1F1A60704739B1134A121D126872
:1003D0000243114B1B1D1A6006E00F4A121D1268E2
:1003E00082430D4B1B1D1A607047042808D14FF043
:1003F000E021096941F004014FF0E022116107E0BA
:100400004FF0E021096921F004014FF0E022116171
:10041000704700000000FA050CED00E000E400E089
:1004200080E100E080FFFF1F10B50446CC48844205
:1004300008D10121042000F02DFB0021042000F050
:1004400029FB46E0C748844208D10121082000F07A
:1004500021FB0021082000F01DFB3AE0C248844245
:1004600008D10121102000F015FB0021102000F020
:1004700011FB2EE0BD48844208D10121202000F06C
:1004800009FB0021202000F005FB22E0B84884424F
:1004900008D10121402000F0FDFA0021402000F0A9
:1004A000F9FA16E0B348844208D10121802000F017
:1004B000F1FA0021802000F0EDFA0AE0AE48844213
:1004C00007D10121801500F0E5FA0021A01500F008
:1004D000E1FA10BD10B50121084600F0DBFA002159
:1004E000012000F0D7FA10BD2DE9F04102460025A9
:1004F0000026002000230024002791F803C00CF000
:100500000F0591F803C00CF0100CBCF1000F03D0E4
:1005100091F802C04CEA050591F800C0BCF1000F4B
:1005200031D0146800202BE04FF0010C0CFA00F3DE
:10053000B1F800C00CEA03069E4220D183004FF0C0
:100540000F0C0CFA03F7BC4305FA03FC4CEA040455
:1005500091F803C0BCF1280F06D14FF0010C0CFA42
:1005600000FCC2F814C00AE091F803C0BCF1480FC7
:1005700005D14FF0010C0CFA00FCC2F810C0401C71
:100580000828D1D31460B1F800C0BCF1FF0F34DDEE
:10059000546800202EE000F1080C4FF0010808FA22
:1005A0000CF3B1F800C00CEA03069E4221D183008F
:1005B0004FF00F0C0CFA03F7BC4305FA03FC4CEAAE
:1005C000040491F803C0BCF1280F05D100F1080C18
:1005D00008FA0CF8C2F8148091F803C0BCF1480F77
:1005E00007D100F1080C4FF0010808FA0CF8C2F826
:1005F0001080401C0828CED35460BDE8F0814FF62F
:10060000FF710180022181700421C1707047024690
:10061000002093680B400BB1012000E000207047E0
:100620000146886880B2704702460020D3680B40BC
:100630000BB1012000E0002070470146C86880B27D
:10064000704701617047416170470AB1016100E084
:1006500041617047C16070474FF480320A43826144
:100660008161826182698269704702460020434B42
:1006700018684FF68073184040EA021008433F4B59
:10068000186070473E49C8617047F0B50A460023BC
:1006900000240021002500F00046B6F1004F02D1F1
:1006A000364EF16901E0354E7168C0F3034583B2FF
:1006B00000F44016B6F5401F08D121F070612F4EAE
:1006C000766826F070662D4F7E6012E000F480168A
:1006D000B6F5801F06D1032606FA05F4A14341F0C2
:1006E000706106E0460D360103FA06F6B14341F0AB
:1006F000706122B1460D360103FA06F6314300F06F
:100700000046B6F1004F02D11C4EF16101E01B4ED4
:100710007160F0BD30B500228B071C0F0F2303FA68
:1007200004F2164B08338C1053F824309343134CC7
:1007300008348D1044F8253023468C1053F82430AB
:100740008C07240F00FA04F423430C4C08348D105A
:1007500044F8253030BD0A49DC310860704700009C
:1007600000080140000C014000100140001401404D
:1007700000180140001C0140002001400000014021
:1007800000002042DF48006840F00100DD490860B9
:1007900008464068DC490840DA4948600846006875
:1007A000DA490840D74908600846006820F48020EC
:1007B00008600846406820F4FE0048604FF41F00BF
:1007C00088607047CF49096821F48031CD4A1160B3
:1007D0001146096821F480211160B0F5803F03D0F3
:1007E000B0F5802F0ED106E0C649096841F480318A
:1007F000C44A116007E0C349096841F4A021C14A15
:10080000116000E000BF00BF704710B50146002234
:10081000002300204A11012A02D1BA4C236806E0C5
:10082000022A02D1B74C236A01E0B64C636A01F098
:100830001F02012494401C400CB1012000E0002064
:1008400010BD38B5002000900024002500BF3120E5
:10085000FFF7DBFF05460098401C00900098B0F5BC
:10086000A06F01D0002DF2D03120FFF7CEFF08B1EC
:10087000012400E00024204638BD01460020A14AA2
:10088000106820F0F80040EAC10010607047A049ED
:1008900008607047024600209A4B586820F47C108C
:1008A00042EA01031843974B58607047984908661D
:1008B000704701460020934A506820F00300084327
:1008C000506070478F48406800F00C007047014648
:1008D00000208C4A506820F0F000084350607047B8
:1008E00001460020874A506820F4E06008435060C9
:1008F000704701460020834A506820F4605040EA67
:10090000C1005060704729B17E4A527A02437D4B44
:100910005A7204E07B4A527A82437A4B5A72704789
:100920007B49D8310860704701460020754A5068FD
:1009300020F440400843506070470021714A203243
:100940001170704A82F82010012802D004280AD1C0
:1009500004E001216B4A2032117005E00521694A4B
:100960002032117000E000BF00BF70476949086085
:1009700070476449096A0143624A116270476549D8
:1009800044390860704730B500210022002400235C
:100990005C4D6D6805F00C0121B1042905D00829D2
:1009A00023D105E05C4D056022E05B4D05601FE052
:1009B000544D6D6805F47012524D6D6805F4803425
:1009C000022505EB92421CB9544D554305600BE0DE
:1009D0004C4D6D6805F400351DB1504D5543056013
:1009E00002E04D4D5543056002E04B4D056000BFF0
:1009F00000BF444D6D6805F0F0010909484D6B5C7E
:100A00000568DD4045603F4D6D6805F4E061090A09
:100A1000434D6B5C4568DD4085603A4D6D6805F47B
:100A20006051C90A3E4D6B5C4568DD40C560354D7F
:100A30006D6805F44041890B3A4D6B5CC568B5FBA8
:100A4000F3F5056130BD29B12E4A526902432D4BA1
:100A50005A6104E02B4A526982432A4B5A6170471B
:100A600029B1284A92690243264B9A6104E0254A3B
:100A700092698243234B9A61704729B1214AD26916
:100A80000243204BDA6104E01E4AD26982431D4BC7
:100A9000DA61704729B11B4AD2680243194BDA6008
:100AA00004E0184AD2688243164BDA60704729B1D5
:100AB000144A12690243134B1A6104E0114A126985
:100AC0008243104B1A6170471249403908607047E1
:100AD0000F49C86470470B49C87170470948406A9C
:100AE00040F0807007494862704701460020054A7F
:100AF00092680A400AB1012000E0002070470149D5
:100B000088727047001002400000FFF8FFFFF6FEF9
:100B1000000042428004424200127A0000093D0077
:100B2000140000202400002010B50446FE48844232
:100B300008D10121C014FFF7ADFF0021E014FFF739
:100B4000A9FFC4E0B4F1804F08D101210846FFF7A6
:100B5000AEFF00210120FFF7AAFFB8E0F34884426E
:100B600008D101210220FFF7A2FF00210220FFF798
:100B70009EFFACE0EE48844208D101210420FFF73B
:100B800096FF00210420FFF792FFA0E0E94884428D
:100B900008D101210820FFF78AFF00210820FFF774
:100BA00086FF94E0E448844208D101211020FFF739
:100BB0007EFF00211020FFF77AFF88E0DF488442A3
:100BC00008D101212020FFF772FF00212020FFF72C
:100BD0006EFF7CE0DA48844208D101214014FFF71F
:100BE00059FF00216014FFF755FF70E0D54884429B
:100BF00009D10121C804FFF74DFF00214FF4002067
:100C0000FFF748FF63E0D048844209D1012108057D
:100C1000FFF740FF00214FF48010FFF73BFF56E045
:100C2000CA48844209D101214805FFF733FF00215A
:100C30004FF40010FFF72EFF49E0C548844208D169
:100C400001214020FFF733FF00214020FFF72FFF55
:100C50003DE0C048844208D101218020FFF727FFF2
:100C600000218020FFF723FF31E0BB48844208D1F8
:100C700001218015FFF71BFF0021A015FFF717FFCB
:100C800025E0B648844209D101210804FFF702FF9C
:100C900000214FF48030FFF7FDFE18E0B048844299
:100CA00009D101214804FFF7F5FE00214FF400307F
:100CB000FFF7F0FE0BE0AB48844208D10121880425
:100CC000FFF7E8FE00214FF48020FFF7E3FE10BDA0
:100CD00000220288944B98420ED0994B98420BD038
:100CE000B0F1804F08D0914B984205D0904B98427C
:100CF00002D0904B984204D14FF68F731A404B8824
:100D00001A438D4B984207D08C4B984204D04FF633
:100D1000FF431A40CB881A4302808B8883850B8857
:100D20000385814B98420BD0854B984208D08B4B62
:100D3000984205D08A4B984202D08A4B984201D102
:100D40000B7A038601238382704770B5002400224A
:100D50000023058C4FF6FE7635400584028C83888F
:100D6000048B4FF68F752C40B51E2C400D882C43FC
:100D7000751E2A400D892A434D882A436A4DA84290
:100D80000BD06F4DA84208D0744DA84205D0744DC9
:100D9000A84202D0734DA84213D14FF6F7752A40EE
:100DA0004D892A434FF6FB752A408D882A434FF61A
:100DB000FF652B404FF6FF552B408D892B43CD8986
:100DC0002B4383800483CD888586028470BD70B5F3
:100DD000002400220023058C4FF6EF763540058471
:100DE000028C8388048B48F6FF752C404FF6FF4534
:100DF0002C400D884FF6FF7606EA05252C434FF66A
:100E0000DF752A400D8906EA05152A434D8806EA52
:100E100005152A43444DA84202D0494DA8421DD190
:100E20004FF67F752A404D894FF6FF7606EA051585
:100E30002A434FF6BF752A408D8806EA05152A43D6
:100E40004FF6FF352B404FF2FF752B408D8906EA98
:100E500085052B43CD8906EA85052B4383800483D2
:100E6000CD880587028470BD70B500240022002360
:100E7000058C4FF6FF6635400584028C8388848B91
:100E80004FF68F752C404FF6FC752C400D882C4387
:100E90004FF6FF552A400D894FF6FF7606EA0525E5
:100EA0002A434D8806EA05252A431F4DA84202D051
:100EB000234DA8421DD14FF2FF752A404D894FF6B0
:100EC000FF7606EA05252A434FF6FF352A408D882E
:100ED00006EA05252A434EF6FF752B404DF6FF75B1
:100EE0002B408D8906EA05152B43CD8906EA0515A9
:100EF0002B4383808483CD888587028470BD70B541
:100F0000002200230024058C4EF6FF763540058430
:100F1000038C8488828B48F6FF752A404FF6FF4584
:100F20002A400D8820E00000002C01400004004011
:100F300000080040000C0040001000400014004079
:100F400000340140004C0140005001400054014079
:100F500000180040001C00400020004000400140FC
:100F600000440140004801404FF6FF7606EA05259F
:100F70002A434DF6FF752B400D8906EA05352B43B4
:100F80004D8806EA05352B43FA4DA84202D0FA4DAA
:100F9000A84208D14BF6FF752C408D894FF6FF769D
:100FA00006EA85152C4384808283CD88A0F84050C2
:100FB000038470BD828B4FF2FF331A408283828B91
:100FC0004FF6FF7303EA01231A4382837047F0B59B
:100FD0000C461546002200210026078C4EF6FF7CA9
:100FE00007EA0C070784828B018C4FF6FF7707EA2C
:100FF000043640F6FF473A404FF6FF7707EA0527E9
:101000003A434FF6FF7707EA03373A43D94FB842DE
:101010000ED0D94FB8420BD0B0F1804F08D0D74F87
:10102000B84205D0D64FB84202D0D64FB84206D10A
:101030004DF6FF77394046F48057394305E047F6CF
:10104000FF57394044F48057394382830184F0BD0F
:10105000828B4FF6F3731A408283828B0A4382831A
:101060007047F0B50C461546002200210026078C7B
:101070004FF6FF6C07EA0C070784828B018C4FF652
:10108000FF7707EA04264FF60C773A404FF6FF77D2
:1010900007EA03172F433A43B64FB8420ED0B64F74
:1010A000B8420BD0B0F1804F08D0B44FB84205D051
:1010B000B34FB84202D0B34FB84206D14FF6FF57F4
:1010C000394046F48077394305E04FF2FF57394005
:1010D00044F48077394382830184F0BD028B4FF260
:1010E000FF331A400283028B4FF6FF7303EA01239A
:1010F0001A4302837047F0B50C46154600220021C2
:101100000026078C4FF6EF7C07EA0C070784028B5A
:10111000018C4FF6FF7707EA041640F6FF473A4086
:101120004FF6FF7707EA03373A434FF6FF7707EAB0
:1011300005273A438F4FB8420ED08F4FB8420BD09D
:10114000B0F1804F08D08D4FB84205D08C4FB842D7
:1011500002D08C4FB84206D14FF6DF77394046F0C7
:101160001007394305E04FF65F77394044F0100728
:10117000394302830184F0BD028B4FF6F3731A40AA
:101180000283028B0A4302837047F0B50C46154672
:1011900000220021068C4FF6FE773E400684028B2B
:1011A000018C4FF60C7632407E1C06EA03162E4365
:1011B0003243704EB0420ED06F4EB0420BD0B0F101
:1011C000804F08D06D4EB04205D06D4EB04202D077
:1011D0006C4EB04206D14FF6FD76314044F0010628
:1011E000314305E04FF6F576314044F001063143D6
:1011F00002830184F0BD70B505460C465D4885420A
:101200000ED05D4885420BD0B5F1804F08D05B48C9
:10121000854205D05A48854202D05A48854200D1BD
:1012200000E000BF208850B92389A2886188284641
:10123000FFF7ABFFE1882846FFF79EFF25E02088F7
:1012400004280AD12389A28861882846FFF753FF22
:10125000E1882846FFF742FF17E0208808280AD1D6
:101260002389A28861882846FFF7FBFEE18828468B
:10127000FFF7EEFE09E02389A28861882846FFF780
:10128000A6FEE1882846FFF795FE70BD2DE9F041E6
:1012900005460C4600260127608808B9022600E0B2
:1012A0000026A088012801D1022700E0012720881C
:1012B000A0B92389A28861882846FFF766FFE188E4
:1012C0002846FFF759FF23893A4631462846FFF75B
:1012D00012FFE1882846FFF701FF13E02389A28867
:1012E00061882846FFF707FFE1882846FFF7F6FEEA
:1012F00023893A4631462846FFF747FFE1882846CA
:10130000FFF73AFFBDE8F0810A884B881A438B88C3
:101310001A43CB881A430B891A434B891A438B898A
:101320001A43A0F8442070474FF6FF7181800021D6
:101330000180C1804180017270470021018041809D
:101340008180C180018141818181C18170470021FB
:1013500001804180012181800021C180018170478D
:101360000021018041808180C18001814181818192
:1013700070470000002C0140003401400004004090
:1013800000080040000C004021B1028842F0010238
:10139000028004E002884FF6FE731A400280704714
:1013A00031B1B0F8442042F40042A0F8442005E0F6
:1013B000B0F84420C2F30E02A0F8442070471AB1DE
:1013C00083890B43838102E083898B438381704748
:1013D0008182704741EA0203A0F8483070471AB191
:1013E00083890B43838102E083898B438381704728
:1013F00001894FF6F8721140018170470A460021B9
:1014000001894FF68F73194011430181704730B540
:1014100004460D4629462046FFF7F0FF208940F09C
:101420000700208130BD2DE9F04104460D461646E7
:101430001F46602D06D13B46012231462046FFF76C
:101440005AFE05E03B46012231462046FFF79DFE4D
:1014500029462046FFF7D2FF208940F0070020816F
:10146000BDE8F08130B50C4600210189C9B24FF6C4
:10147000FF7505EA0325154325432943018130BD46
:101480002DE9F04105460E4617469846002443468E
:101490003A4631462846FFF7E5FF2C894FF6F870AB
:1014A000044044F007044FF68F70044044F0700489
:1014B0002C81BDE8F081F0B504460D4616461F4666
:1014C0003B46324629462046FFF7CCFF208940F4B0
:1014D00080402081F0BD0185828270470A4600214C
:1014E00001884FF68F731940114301807047F0B5A2
:1014F0000C4615461E460021002200230189028B5E
:10150000038C4FF6F877394021434FF6FC473A40B9
:1015100040F201173A434FF6DD773B404FF6FF7735
:1015200007EA06172F433B43018102830384F0BD82
:101530000A460021018B4FF68F7319401143018336
:1015400070470A460021018B48F6FF7319404FF699
:10155000FF7303EA02231943018370470A460021FF
:10156000818B4FF68F7319401143818370470A4670
:101570000021818B48F6FF7319404FF6FF7303EA91
:10158000022319438183704721B1028842F080020F
:10159000028004E002884FF67F731A400280704791
:1015A00021B1828842F00402828004E082884FF6F2
:1015B000FB731A408280704721B1828842F0080292
:1015C000828004E082884FF6F7731A408280704769
:1015D00021B1828842F00102828004E082884FF6C5
:1015E000FE731A40828070470A460021018B4FF635
:1015F000F77319401143018370470A460021018B9C
:101600004FF2FF7319404FF6FF7303EA02231943A9
:10161000018370470A460021818B4FF6F77319400A
:101620001143818370470A460021818B4FF2FF737B
:1016300019404FF6FF7303EA022319438183704771
:101640000A460021018B4FF6FB73194011430183B9
:1016500070470A460021018B4FF6FF3319404FF6C1
:10166000FF7303EA02231943018370470A460021EE
:10167000818B4FF6FB7319401143818370470A46F3
:101680000021818B4FF6FF3319404FF6FF7303EAB9
:1016900002231943818370470A460021018B4FF6CC
:1016A0007F7319401143018370470A460021018B63
:1016B000C1F30E014FF6FF7303EA022319430183BE
:1016C00070470A460021818B4FF67F731940114302
:1016D000818370470A460021818BC1F30E014FF6CA
:1016E000FF7303EA02231943818370470A460021EE
:1016F000018C4FF6FD7319401143018470470A466F
:101700000021018C4FF6F773194011430184704793
:101710000A460021018C4FF6DF7319404FF6FF7324
:1017200003EA02131943018470470A460021018C21
:101730004FF67F7319404FF6FF7303EA0213194304
:10174000018470470A460021018C4FF6FF5319406F
:101750004FF6FF7303EA02231943018470470A46D8
:101760000021018C4FF2FF7319404FF6FF7303EA1B
:1017700002231943018470470A460021018C4DF66B
:10178000FF7319404FF6FF7303EA023319430184D4
:10179000704730B5002301248C40A3B2048C9C43D5
:1017A0000484048C02FA01F5ADB22C43048430BDEC
:1017B00030B5002304248C40A3B2048C9C430484E1
:1017C000048C02FA01F5ADB22C43048430BD70B52F
:1017D0000346002000241846183001258D40ACB285
:1017E0001D8CA5431D8409B1082909D100EB6100B6
:1017F000056825F0700505600568154305600EE075
:101800000D1FC5F34E052844056825F4E045056025
:1018100005684FF6FF7606EA02263543056070BD7F
:1018200021B1028842F00202028004E002884FF6F1
:10183000FD731A400280704721B1028842F0040211
:10184000028004E002884FF6FB731A400280704762
:1018500021B1828842F08002828004E082884FF6C3
:101860007F731A408280704702884FF6F7731A40E0
:10187000028002880A430280704782884FF68F7385
:101880001A40828082880A438280704702894FF61C
:10189000F8731A40028102890A4302817047028963
:1018A0004FF67F731A40028102890A430281704712
:1018B00081847047818570478186704701877047B2
:1018C00081877047A0F84010704702884FF6FF43A9
:1018D0001A40028002880A43028070470146888EBF
:1018E00070470146088F70470146888F7047014650
:1018F000B1F8400070470146888C70470146088D5A
:10190000704702460020138A0B400BB1012000E013
:1019100000207047CA430282704730B5024600205B
:1019200000230024158A05EA0103958905EA0104CC
:1019300013B10CB1012000E0002030BDCA43028287
:101940007047000010B50446FB48844209D10121CC
:101950008803FFF79FF800214FF48040FFF79AF8C3
:1019600032E0F648844209D101214804FFF79FF88C
:1019700000214FF40030FFF79AF825E0F048844248
:1019800009D101218804FFF792F800214FF480204B
:10199000FFF78DF818E0EB48844209D10121C80413
:1019A000FFF785F800214FF40020FFF780F80BE0E7
:1019B000E548844208D101210805FFF778F80021A5
:1019C0004FF48010FFF773F810BD2DE9F04786B093
:1019D00005460E460024A24600BFA1460027B08956
:1019E00000B100BF2F462C8A4CF6FF700440F088EF
:1019F00004432C82AC894EF6F3100440B088318940
:101A00000843718908430443AC81AC8A4FF6FF4018
:101A10000440B0890443AC8201A8FEF7B4FFC64875
:101A2000874202D1DDF810A001E0DDF80CA0A88902
:101A300000F4004040B10AEBCA0000EB0A10316824
:101A40004900B0FBF1F807E00AEBCA0000EB0A100E
:101A500031688900B0FBF1F86420B8FBF0F00401B4
:101A60002009642101FB1089A88900F4004040B1DD
:101A7000322000EBC900B0FBF1F000F00700044396
:101A800008E0322000EB09106421B0FBF1F000F017
:101A90000F0004432C8106B0BDE8F0874FF41651C7
:101AA000016000218180C18001810C2141810021E0
:101AB0008181704710B502460020108A4FF2FF0363
:101AC00018400B884C8823438C882343CC882343BD
:101AD0001843108210BD0021018041808180C180A7
:101AE000704721B1828942F40052828104E08289E8
:101AF0004DF6FF731A4082817047F0B5034600240B
:101B000000260025002040F66A17B94200D100BF28
:101B10001846C1F3421401F01F06012707FA06F523
:101B2000012C01D10C3004E0022C01D1103000E076
:101B300014301AB107682F43076002E00768AF430B
:101B40000760F0BD1AB1838A0B43838202E0838A67
:101B50008B4383827047028A4FF6F0731A400282E9
:101B6000028A0A430282704782894FF2FF731A4049
:101B7000828182890A438281704721B1828942F041
:101B80000202828104E082894FF6FD731A4082814D
:101B90007047028A4FF6DF731A400282028A0A43B4
:101BA0000282704721B1028A42F48042028204E03C
:101BB000028A4BF6FF731A4002827047C1F3080293
:101BC0008280704701468888C0F308007047818989
:101BD00041F0010181817047028BD2B20283028BF6
:101BE00042EA012202837047028B02F47F420283A1
:101BF000028B0A430283704721B1828A42F020029D
:101C0000828204E0828A4FF6DF731A408282704734
:101C100021B1828A42F01002828204E0828A4FF669
:101C2000EF731A408282704721B1828A42F0080223
:101C3000828204E0828A4FF6F7731A4082827047EC
:101C400021B1828942F40042828103E08289C2F399
:101C50000E028281704721B1828A42F40062828240
:101C600004E0828A4FF2FF731A4082827047828AB0
:101C70004FF6FB731A408282828A0A43828270473F
:101C800021B1828A42F00202828204E0828A4FF607
:101C9000FD731A408282704702460020B1F5007F32
:101CA00000D100BF13880B400BB1012000E00020E1
:101CB000704701F40072B2F5007F00D100BFCA4343
:101CC0000280704770B502460024002300250020E2
:101CD00040F66A16B14200D100BFC1F3421501F0CF
:101CE0001F03012606FA03F3012D02D19689334022
:101CF00006E0022D02D1168A334001E0968A334075
:101D00000C12012606FA04F41688344013B10CB103
:101D1000012000E0002070BD10B50022002340F635
:101D20006A14A14200D100BF0A1201249440A3B258
:101D3000DC43048010BD0000003801400044004036
:101D400000480040004C00400050004001B502E057
:101D50000098401E009000980028F9D108BD00F0BE
:101D60004EF901F0DDFA00F029FC00F002FB00F072
:101D7000E7F901F0A2FB37A001F02CFF01F0ACF86D
:101D800066E001F0FAF801F089FB3A480078012892
:101D90005BD138488088C0EB0040364949884518F7
:101DA0004FF4AA7105FB01F001F003FC064632492D
:101DB00001F0C1FB0446204601F000FC06464FF04E
:101DC00066322E4B01F026FC03D22D482D490860C7
:101DD00001E02C480460204601F0F0FB06464FF07D
:101DE0006632264B01F016FC03D227A001F0F2FE6A
:101DF00008E0204601F0E2FB064632460B4627A0EB
:101E000001F0E8FE204601F0D9FB06464FF03332E0
:101E1000264B01F0E7FB0DD20021204601F012FC19
:101E200008D201212248FEF70CFC02212148FEF7CE
:101E300008FC07E001211E48FEF705FC02211D48B1
:101E4000FEF701FC00200B4908701B48FFF77EFFDE
:101E500097E700000D0A57694669202B20B3ACC9EB
:101E6000F9B2A820D5FBBACFB3C9B9A6A3A10D0A70
:101E700000000000460000200024F4496666164079
:101E8000000080BF28000020CEDED0C5BAC52FB329
:101E9000ACB3F6B7B6CEA70D0A000000BEE0C0EBAB
:101EA000A3BA252E3266206D0D0A00003333D33FCE
:101EB000000C014000080140E0930400704700BF9F
:101EC000FEE700BFFEE700BFFEE700BFFEE770478A
:101ED0007047704710B500F072F910BD704710B52B
:101EE00040F225513948FFF7EDFED8B13748FFF7EA
:101EF00069FEC4B23648B0F80004C0F30E0040F2E8
:101F0000FF3188420EDA3249B1F80014C1F30E00F5
:101F1000411C2F4AB2F8002461F30E022C49A1F8AB
:101F200000240C5440F224412848FFF7CBFE01283E
:101F30000DD12748B0F8000420F4004000F500401F
:101F40002349A1F800042148FFF73CFEC4B210BDAC
:101F500010B501218807FFF7E0FC40B11D488088DB
:101F6000401C1C49888001218807FFF7E7FC0421F9
:101F70000807FFF7D2FC38B31648407880B9002133
:101F80004FF08040FFF794FC002012498880488081
:101F900002214807FFF7BCFB01200E4948700FE003
:101FA0004FF08040FFF79DFC0A49488000214FF028
:101FB0008040FFF7ADFB0020064948700120087003
:101FC00004210807FFF7BAFC10BD000000480040DC
:101FD000500000204600002008B54FF4A060FEF736
:101FE000B5F925208DF8000001208DF801008DF84D
:101FF00002008DF803006846FEF7ADF908BD00B594
:1020000085B001210420FEF72BFD01218803FEF796
:1020100027FD4FF40070ADF8100018208DF8130064
:1020200003208DF8120004A94348FEF75DFA4FF42F
:102030008060ADF8100004208DF8130004A93E481C
:10204000FEF752FA4FF4E13000900020ADF80400A2
:10205000ADF80600ADF80800ADF80C000C20ADF8A6
:102060000A0069463548FFF7B0FCFFF7B5FF0121CC
:102070003248FFF736FD05B000BD70B504460D4689
:1020800029462046FFF79AFD00BF80212046FFF732
:1020900003FE0028F9D070BD70B506460C46002539
:1020A00000BF615D3046FFF7E8FF6D1C605D0028F2
:1020B000F7D100BF40213046FFF7EEFD0028F9D0F0
:1020C00070BD2DE9F04105460C46260AE7B23146BF
:1020D0002846FFF773FD00BF80212846FFF7DCFD8F
:1020E0000028F9D039462846FFF768FD00BF802157
:1020F0002846FFF7D1FD0028F9D0BDE8F08170B582
:1021000004460D46E1B20D48FFF758FD00BF80219F
:102110000A48FFF7C1FD0028F9D0204670BD10B570
:10212000044600BF20210548FFF7B6FD0028F9D07E
:102130000248FFF747FD10BD00080140003801408C
:1021400030B523480068234AB0FBF2F1B1F1807F3B
:1021500001D301201DE021F07F40401E4FF0E0221E
:10216000506150170F22002807DA13071D0E1A4B73
:1021700000F00F04241F1D5503E013071C0E174B1E
:102180001C5400BF00204FF0E02290610720106136
:10219000002008B100BFFEE74FF0E020006940F0EA
:1021A00001004FF0E021086130BD01B50C490098F5
:1021B000086000BF0A4800680028FBD108BD084835
:1021C000006820B106480068401E05490860704755
:1021D00000000020A086010018ED00E000E400E00F
:1021E0002C000020F0B503460D4616460027294670
:1021F0000A2E03D0002008702846F0BD33B93020E5
:1022000001F8010B002008702846F6E7002B03DADE
:102210002D2001F8010B5B4242F210720DE093FB9E
:10222000F2F404B937B104F1300001F8010B04FBFA
:10223000123301270A2092FBF0F2002AEFDC002083
:1022400008702846D9E70FB470B586B006460CA8CA
:10225000019073E00B9800785C281CD10B98401C0F
:102260000B9000786E2809D072280FD10D213046CE
:10227000FFF7A4FC0B98401C0B900BE00A213046A2
:10228000FFF79CFC0B98401C0B9003E00B98401C44
:102290000B9000BF4BE00B980078252840D10B989D
:1022A000401C0B900078642818D0732833D1019813
:1022B00010C801900BE021783046FFF77FFC00BF8B
:1022C00080213046FFF7E8FC0028F9D0641C207814
:1022D0000028F0D10B98401C0B9020E0019820C8FA
:1022E00001900A2202A92846FFF77CFF02AC0BE00E
:1022F00021783046FFF762FC00BF80213046FFF7AF
:10230000CBFC0028F9D0641C20780028F0D10B9871
:10231000401C0B9003E00B98401C0B9000BF06E0A4
:102320000B9810F8011B0B903046FFF747FC00BFDD
:1023300080213046FFF7B0FC0028F9D00B980078D8
:10234000002887D106B070BC5DF814FB08B50121E8
:102350000820FEF785FB0120ADF8000010208DF865
:10236000030003208DF8020069465148FEF7BCF8CF
:1023700008BD10B5FFF7EAFF01214D48FEF761F9EE
:1023800010BD08B50120ADF8000048208DF803000D
:1023900069464748FEF7A8F808BD08B50120ADF822
:1023A000000010208DF8030003208DF8020069461C
:1023B0003F48FEF799F808BD70B50025002424E0D9
:1023C00000BF01213A48FEF722F90028F9D0282061
:1023D00000F0B8FF01213648FEF719F901280DD1A8
:1023E00000BF01213248FEF712F90128F9D0C4F1EB
:1023F000070101208840C0B2054304E0C4F1070191
:10240000012088408543601CC4B2082CD8DB2846D4
:1024100070BD10B50446FFF7C0FF01212448FEF748
:1024200012F944F2506000F08DFF01212048FEF7C0
:1024300008F91E2000F086FFFFF7A3FF01211C48CA
:10244000FEF7E5F880BB00BF01211948FEF7DFF871
:102450000028F9D000BF01211548FEF7D8F801285F
:10246000F9D0FFF7A9FF2070FFF7A6FF6070FFF714
:10247000A3FFA070FFF7A0FFE070FFF79DFF2071A2
:10248000FFF78BFF01210A48FEF7DBF8207861781F
:102490000844A1780844E17808442179884201D1B0
:1024A000012010BD0020FCE7FFE70020F9E7000055
:1024B000000C014008B54FF4A060FDF747FF27204E
:1024C0008DF8000000208DF801008DF80200012039
:1024D0008DF803006846FDF73EFF08BD00B585B0E6
:1024E00001218804FEF7C9FA01210820FEF7B8FA95
:1024F0004FF48060ADF8100018208DF81300032011
:102500008DF8120004A9F748FDF7EEFF4FF40060C4
:10251000ADF8100004208DF8130004A9F148FDF770
:10252000E3FF4FF4E13000900020ADF80400ADF877
:102530000600ADF80800ADF80C000C20ADF80A005C
:102540006946E948FFF741FA012240F22551E64881
:10255000FFF7D3FA012240F22441E348FFF7CDFA16
:10256000FFF7A8FF0121E048FFF7BBFA05B000BD67
:1025700008B501210820FEF773FA4FF48070ADF81A
:10258000000010208DF8030003208DF8020069463A
:10259000D448FDF7A9FF01210820FEF761FA4FF4A6
:1025A0000070ADF8000010208DF8030003208DF8B6
:1025B00002006946CB48FDF797FF08BD10B5FFF74D
:1025C000D7FFFFF78BFF4FF40071C648FEF739F8CD
:1025D0004FF48071C348FEF736F810BD10B54FF4C4
:1025E0000071C048FEF72FF8C04800F0ABFE4FF472
:1025F0000071BC48FEF725F810BD2DE9F0410646F4
:102600000C4615461F46BA48B0F800046FF30E009A
:10261000B749A1F800043246B6A1B348FFF713FE4C
:102620001CB915B90120BDE8F0814FF47A7107FBA0
:1026300001F000F087FE0020AD49B1F80014C1F3AD
:102640000E01AB4A50541146ACA001F0C3FAB4B12C
:10265000ADB12146A64800F055FF08B1012000E0C9
:10266000002040B92946A24800F04CFF08B10120E3
:1026700000E0002008B10120D5E70020D3E744B1F5
:1026800021469B4800F03EFF08B10120CBE7002027
:10269000C9E72946964800F035FF08B10120C2E796
:1026A0000020C0E700B58BB095A101A801F0A2FA07
:1026B0004FF4FA73002296A101A8FFF79EFF0BB01A
:1026C00000BD10B500244FF400718648FDF7B9FF36
:1026D00090A001F07FFA934800F034FE15E0214607
:1026E00091A001F077FA4FF4FA73002288A194A028
:1026F000FFF783FF28B1214692A001F06BFA012079
:1027000010BDFFF76BFF601CC4B20A2CE7DB002092
:10271000F6E710B5044624B1012C0AD0022C18D1DA
:102720000FE040F6C4138EA279A190A0FFF765FFD9
:1027300010BD40F6C4138AA275A18FA0FFF75DFFFC
:10274000F6E740F6C41386A271A18EA0FFF755FFED
:10275000EEE70020ECE730B59FB004460D462B466F
:1027600022468BA101A801F045FA41F288330022EC
:1027700067A101A8FFF741FF1FB030BD70B5A0B041
:1027800004460D4616462B46224686A102A8009610
:1027900001F030FA4FF47A7300225DA102A8FFF72E
:1027A0002CFF20B070BD10B586B004460CB10120DE
:1027B00000E00020024681A101A801F01BFA4FF4BD
:1027C000FA73002252A101A8FFF717FF06B010BD4F
:1027D000F0B5B9B006460F4614461D46642120A840
:1027E00000F085FE16B1012E10D107E03B4677A21E
:1027F00077A120A8009401F0FDF908E03B4678A2FB
:1028000073A120A8009401F0F5F900E000BF00BF1B
:10281000052D06DA20AB2A4672A102A801F0EAF9DA
:1028200004E020AA74A102A801F0E4F94FF47A634D
:1028300075A237A102A8FFF7E0FE39B0F0BD70B570
:10284000BCB004460D461646FCB12B46012272A1CF
:102850001EA801F0CFF9324674A1684601F0CAF90A
:102860004FF4FA7300222AA11EA8FFF7C6FE50B14A
:102870004FF4FA73002226A16846FFF7BEFE10B19E
:1028800001203CB070BD0020FBE72B46002262A176
:102890001EA801F0AFF94FF4FA7300221CA11EA884
:1028A000FFF7ABFEEDE710B54FF4FA73002218A165
:1028B00062A0FFF7A2FEA0B164A10D4800F022FEC5
:1028C00008B1022010BD64A1094800F01BFE08B148
:1028D0000320F7E763A1064800F014FE08B10420C6
:1028E000F0E7C5E0000C01400048004020A10700CF
:1028F0005000002025730D0A000000002573000021
:1029000041542B4357444843503D312C3100000083
:102910004F4B00000D0A4154B2E2CAD42E2E2E2E87
:102920002E0D0A0080841E000D0A4154B2E2CAD462
:10293000B4CECAFD2025642E2E2E2E2E2E0D0A007A
:10294000415400000D0A4154B2E2CAD4C6F4B6AFF5
:10295000B3C9B9A62025642E2E2E2E2E2E0D0A00C8
:102960006E6F206368616E676500000041542B4301
:10297000574D4F44453D310041542B43574D4F4433
:10298000453D320041542B43574D4F44453D3300A4
:1029900041542B43574A41503D222573222C222576
:1029A0007322000041542B43575341503D2225735D
:1029B000222C222573222C312C25640041542B43D8
:1029C00049504D55583D25640000000054435000C7
:1029D000222573222C222573222C2573000000004F
:1029E0005544500041542B43495053544152543D97
:1029F00025642C257300000041542B434950535447
:102A00004152543D25730000414C524541592043E9
:102A10004F4E4E454354000041542B4349505345BB
:102A2000525645523D25642C2573000041542B43DA
:102A3000495053544F3D25730000000041542B432F
:102A400049505354415455530000000053544154CD
:102A500055533A320D0A00005354415455533A33FA
:102A60000D0A00005354415455533A340D0A0000E6
:102A7000002027E710B500244FF4FA730022AFF2CC
:102A80007011AFF24800FFF7B8FD002831D0ADA1BA
:102A9000B04800F037FD10B144F0010401E024F02B
:102AA0000104ADA1AB4800F02DFD10B144F00204CB
:102AB00001E024F00204ACA1A64800F023FD10B10F
:102AC00044F0040401E024F00404ABA1A14800F0A8
:102AD00019FD10B144F0080401E024F00804AAA193
:102AE0009C4800F00FFD10B144F0100401E024F008
:102AF0001004204610BD2DE9F04105460F464FF465
:102B0000FA730022AFF2F811A3A0FFF776FDA5A19A
:102B1000904800F0F7FC06460EB1B61D02E000201A
:102B2000BDE8F081002409E0305D2855285D2228A9
:102B300002D10020285503E0601CC4B2BC42F3DB84
:102B400000BF0120ECE72DE9F04105460F464FF4A8
:102B5000FA730022AFF248218FA0FFF74EFD93A138
:102B60007C4800F0CFFC06460EB1F61D02E00020C6
:102B7000BDE8F081002409E0305D2855285D222859
:102B800002D10020285503E0601CC4B2BC42F3DB34
:102B900000BF0120ECE710B54FF4FA730022AFF24A
:102BA000902184A0FFF729FD08B9002010BD4FF443
:102BB000FA7384A2AFF2A82183A0FFF71EFDF5E708
:102BC00010B5844800F0BEFB83A18448FFF73BFBAF
:102BD000834800F0B7FB10BD2DE9F04186B00746F1
:102BE0000C4615461E464FF0000847B12246AFF28C
:102BF000F4217A48FFF727FB4FF001081BE0052E70
:102C000006DAAB1C324677A101A800F0F3FF04E01E
:102C1000AA1C79A101A800F0EDFF642300227AA18B
:102C200001A8FFF7EAFC4FF4FA73002277A12046CF
:102C3000FFF7E3FC8046404606B0BDE8F08170B582
:102C4000044600254348B0F800046FF30E004149E4
:102C5000A1F800040846B0F8000420F40040A1F8F0
:102C6000000400BF3B48B0F80004C00B0028F9D0B6
:102C700000203849B1F80014C1F30E01354A505410
:102C80000CB1154605E063A1324800F03BFC00B1F1
:102C9000304D284670BD2DE9F041054664230022E1
:102CA000AFF294315DA0FFF7A8FC29A1294800F0FC
:102CB00029FC8046B8F1000F09D05BA1254800F03F
:102CC00021FC00F10B07A8EB0700C6B202E00020D0
:102CD000BDE8F081002403E0385D2855601CC4B2D3
:102CE000B442F9DB0020A8550120F1E710B588B007
:102CF000044622464FA1684600F07CFF41F288332B
:102D00000022AFF2F4316846FFF777FC10B10120E2
:102D100008B010BD0020FBE710B588B0044622467D
:102D200048A1684600F066FF41F288330022AFF206
:102D300020416846FFF761FC10B1012008B010BDCA
:102D40000020FBE72B4349505354415455533A302C
:102D50002C000000500000202B4349505354415494
:102D600055533A312C0000002B43495053544154E1
:102D700055533A322C0000002B43495053544154D0
:102D800055533A332C0000002B43495053544154BF
:102D900055533A342C00000041542B4349465352BA
:102DA00000000000415049502C220000535441497A
:102DB000502C220041542B4349504D4F44453D3146
:102DC000000000003E00000041542B434950534591
:102DD0004E44000040420F002B2B2B0000480040C7
:102DE00020A1070041542B43495053454E443D25F3
:102DF000642C25640000000041542B434950534586
:102E00004E443D25640000003E20000053454E44E2
:102E1000204F4B002B4950440000000041542B43ED
:102E2000574C49460000000041542B43574C49463B
:102E30000D0D0A0041542B43495041503D2225734A
:102E40002200000041542B4349505354413D222558
:102E500073220000002106E0002200E0521CB2F5BF
:102E6000E15FFBD3491C8142F6D3704708B50121CD
:102E70000420FDF7F5FD0E20ADF8000010208DF8C0
:102E8000030003208DF802006946DC48FDF72CFBA7
:102E90000221DA48FDF7D5FB0421D848FDF7D1FB24
:102EA0000821D648FDF7CDFB08BD08B50121082053
:102EB000FDF7D6FD0120ADF8000010208DF80300CD
:102EC00003208DF802006946CD48FDF70DFB012176
:102ED000CB48FDF7B8FB08BD10B5CAA000F07AFEDC
:102EE0004FF48071C648FDF7ACFBFFF7BFFFFFF75B
:102EF000DCFF00BFFFF7E5FB0028FBD000BF01208F
:102F0000FFF707FC0028FAD000BFC4A0FFF7EEFED1
:102F10000028FAD000BF0022C4A1C7A0FFF72EFCF2
:102F20000028F8D000BF0120FFF73DFC0028FAD0B0
:102F300000BFC4A2C5A10120FFF781FC0028F8D082
:102F40001421C448FFF7D7FDC0A3C24ABAA1C2A04A
:102F500000F040FEC648B0F800046FF30E00C4490C
:102F6000A1F800040846B0F8000420F40040A1F8DD
:102F70000004C0A000F02EFE10BDF8B5BC48B0F8AB
:102F80000004C00B002872D0002240F22551BD4839
:102F9000FEF7B3FD0020B649B1F80014C1F30E01ED
:102FA000B34A50541146B8A000F014FEB9A1B0487D
:102FB00000F0A8FABA490860002873D008460068F3
:102FC000007AB849087008460078312804D03228C1
:102FD0001FD0332858D139E0B1480068807AB14910
:102FE000087008460078302807D102218348FDF791
:102FF00028FB0020AC4908700AE0AA480078312874
:1030000006D102217D48FDF71EFB0120A64908706C
:103010003AE0A3480068807AA24908700846007820
:10302000302807D104217548FDF70BFB00209F498C
:1030300008700AE09B480078312806D104216F48C7
:10304000FDF701FB0120994908701DE094480068D4
:10305000807A9449087008460078302808D1082101
:103060006648FDF7EEFA0020914908700BE0B1E0E8
:103070008C480078312806D108216048FDF7E3FA32
:1030800001208B49087000BF00BF8948007800907C
:10309000864803788448027886A16E4800F0AAFD2D
:1030A0006BE0FFE789A1724800F02CFA7C490860C8
:1030B000002842D008460068C07A7A49087008465D
:1030C0000078312820D101214D48FDF7BAFA0120BE
:1030D0008149087000240EE002214848FDF7B3FA48
:1030E0009620FFF7B7FE02214448FDF7AAFA962082
:1030F000FFF7B0FE641C032CEEDB02213F48FDF716
:10310000A2FA0120684908706648007830280DD17D
:1031100001213B48FDF797FA00206F490870022112
:103120003648FDF78EFA00205F4908706A48027839
:103130006AA1484800F05EFD1FE06BA14C4800F01A
:10314000E1F9D0B16B48006800F038FA05464FF05D
:103150006632694B00F05EFA04D268A13D4800F087
:1031600049FD0AE06348006800F028FA05462A464F
:103170000B4665A1374800F03DFD66A13C4800F0D4
:10318000C1F94749086080B1084600684079303885
:10319000624908702F4800F0C7F905465F48037878
:1031A0002A462C490020FFF717FD3148B0F80004EB
:1031B0006FF30E002E49A1F800040846B0F8000491
:1031C00020F40040A1F80004012240F225512D48CE
:1031D000FEF793FC4048007801280DD102210748F2
:1031E000FDF731FA6420FFF735FE02210348FDF7B1
:1031F00028FA6420FFF72EFEF8BD00000008014009
:10320000000C01400D0AC5E4D6C3204553503832A6
:103210003636202E2E2E0D0A000000003139322EB7
:103220003136382E302E34380000000077696C6457
:10323000666972650000000042696E6768756F4CD0
:10324000696E6B00313830300000000038303830A3
:1032500000000000520400200A574946493A2573ED
:103260000A49503A25730A504F52543A25730A00BE
:10327000500000200D0AC5E4D6C3CDEAB1CF0D0A37
:103280000000000000480040756343683D25730A54
:1032900000000000434D445F4C45445F00000000C7
:1032A00038000020360000203200002033000020CB
:1032B000340000204C4544313A2564204C454432CA
:1032C0003A2564204C4544333A256400434D445F1D
:1032D00042555A5A45525F003500002042555A5A0D
:1032E00045523A25640000004745545F4449535411
:1032F0000000000028000020666616404449535430
:103300003ACEDED0C5BAC500444953543A252E32D0
:1033100066206D002B4950442C0000003000002036
:103320001A48006840F08070184908600020184969
:1033300048600846006840F0010008607047144883
:103340004068704731B5002312480068124DB0FB49
:10335000F5F0009D00FB05F400BFFFF7F0FF02460B
:1033600011E0FFF7ECFF014691420CD0914202D9E7
:10337000881A034403E0C2F1FF30084403440A46BC
:10338000A34200D300E0ECE700BF38BDFCED00E055
:10339000001000E00000002040420F0008B54FF48C
:1033A000E060FCF7D3FF1C208DF8000000208DF8B2
:1033B000010003208DF8020001208DF8030068460B
:1033C000FCF7C9FF08BD08B501210820FDF748FB3F
:1033D00001210846FDF744FB0820ADF80000042059
:1033E0008DF8030069463A48FDF77EF80121394817
:1033F000FDF74BF901213848FDF747F908BD00B545
:1034000087B001210846FDF738FB4FF6FF70ADF895
:1034100014004720ADF810000020ADF81600ADF8FC
:1034200012008DF8180004A94FF08040FDF750FC01
:103430000420ADF804000020ADF806000120ADF82E
:1034400008000020ADF80A00ADF80C0001A94FF00B
:103450008040FDF7D0FE05218807FEF75BFA0122C8
:1034600005218807FDF7ABFF01218807FDF78CFFD9
:1034700007B000BD08B501210420FDF7F1FA4FF4B3
:103480000040ADF8000010208DF8030003208DF8F7
:10349000020069461148FDF727F808BD10B54FF442
:1034A00000410E48FDF7CDF81E20FEF77EFE4FF4DA
:1034B00000410A48FDF7C7F810BD10B5FFF783FFBC
:1034C000FFF76CFFFFF7D6FFFFF799FF10BD000075
:1034D000000C014000031800000230000008014009
:1034E000D2B201E000F8012B491EFBD27047002246
:1034F000F6E710B513460A4604461946FFF7F0FFF3
:10350000204610BD30B505462A460B4612F8010B81
:1035100013F8014B08B1A042F8D01CB1002802D02A
:103520006D1CF1E7284630BD421C10F8011B002934
:10353000FBD1801A704730B480EA010202F00045E6
:1035400030F0004221F0004013D090B1C30DD40DF3
:10355000C2F31601C0F31600E41A41F4000140F46E
:1035600000027D34914201D3641C00E04900002C2C
:1035700002DA30BC002070474FF400000023914273
:1035800001D3891A034340084FEA4101F7D151B1F1
:10359000914202D14FF0004105E002D24FF001010B
:1035A00001E06FF0010103EBC450284430BC00F08F
:1035B0009AB896230022114600F09EB800F000420F
:1035C00030F000400AD0C10D01F56071C0F3160063
:1035D00042EA0151C20840071143704700200146EA
:1035E0007047000030B5041E71F1000404DB4FF099
:1035F0000044404264EB0101141E73F1000405DB3A
:103600001C464FF00043524263EB04038B4208BF59
:10361000824230BD30B5041E71F1000404DB4FF06E
:103620000044404264EB0101141E73F1000405DB09
:103630001C464FF00043524263EB0403994208BF1B
:10364000904230BD002801DBC0F10040002901DBC1
:10365000C1F100418842704730B50B460146002059
:103660002022012409E021FA02F59D4205D303FA44
:1036700002F5491B04FA02F52844151EA2F10102C5
:10368000F1DC30BD2DE9F05F0546002092469B46F7
:1036900088460646814640241BE028464146474668
:1036A000224600F018FA53465A46C01A914110D3E8
:1036B00011461846224600F0FFF92D1A67EB010863
:1036C0004F4622460120002100F0F6F917EB0009D1
:1036D0004E41201EA4F10104DFDC484631462A4653
:1036E0004346BDE8F09F0029A8BF7047401C490031
:1036F00008BF20F00100704710B4B0FA80FC00FA57
:103700000CF050EA010404BF10BC704749B1CCF181
:10371000200421FA04F411FA0CF118BF012121430D
:103720000843A3EB0C01CB1D4FEA00614FEA1020C8
:1037300042BF002010BC704700EBC350104400296A
:10374000A4BF10BC7047401C490008BF20F0010016
:1037500010BC70472DE9FE4F804681EA0300C00F80
:103760000C46009021F0004123F00045B8EB020028
:10377000A94105D24046214690461C460B460246CA
:1037800023F00040104347D0270DC7F30A00C3F3CE
:103790000A510290401A019040286BDAC3F31300DB
:1037A00040F4801B0098924620B10023D2EB030A1C
:1037B00063EB0B0B01985946C0F14002504600F0F4
:1037C0007BF906460D4650465946019A00F093F99A
:1037D00010EB08006141002487EA115284EAE77384
:1037E0001A4340D0009A62B3019A012A4FEA075265
:1037F00015DC001B61EB02014FF0004202EA0752A8
:10380000CDE90042001C41F5801132462B4600F004
:1038100093F903B0BDE8F08F40462146F9E7001B5D
:1038200061EB0201001C41F5801300185B41201878
:10383000A2F5001747EB030140EAD570B6196D41B8
:1038400011E06D084FEA360645EAC0754FEA0752A7
:10385000001B61EB0201001C41F5801149084FEA91
:1038600030000019514132462B4603B0BDE8F04FFD
:1038700000F053B90098012240000023D0EB02026F
:1038800063EBE073009821464FEAE074B8EB000068
:1038900061EB0401E9E783F000435BE781F000415D
:1038A00058E72DE9FE4F81EA030404F0004421F0BB
:1038B000004100944FF0000B23F0004350EA010454
:1038C0005ED052EA03045BD0C3F30A54C1F30A5535
:1038D0002C44A4F2F3340194A0FB0254C1F313016D
:1038E00041F48011C3F3130343F4801301FB02443A
:1038F00000FB034E840A970A44EA815447EA83573F
:10390000A4FB076802958D0A05FB07854FEA932CF7
:1039100004FB0C542705029D4FEA065847EA163768
:10392000B5EB08056EEB070C870E920E47EA811780
:1039300042EA8312A7FB0201B6EB0B0164EB000421
:103940002B0D43EA0C335E1844EB1C50DA4651460B
:10395000E7FB0201C5F313044FEA0B3343EA1453A8
:103960004FEA0432019C43EA0603A4F10C040294DA
:10397000009CCDE900B400F0DFF803B0BDE8F08FA3
:1039800000200146F9E72DE9F04D81EA030404F037
:10399000004B21F0004514464FF0000A23F000418F
:1039A00050EA050220D054EA01021DD0C5F30A579F
:1039B0000246C5F31303C1F31300C1F30A5640F4E2
:1039C000801543F48013A7EB0608101BD64608F2B7
:1039D000FD3873EB050002D308F1010801E09218ED
:1039E0005B41B8F1000F03DA00200146BDE8F08D1D
:1039F00000204FF48011064684460EE0171B73EB3F
:103A0000050705D3121B63EB050306434CEA010CC3
:103A100049084FEA300092185B4150EA0107EDD1A6
:103A200052EA030012D082EA040083EA0501084347
:103A300005D0101BAB4106D20122002306E0002274
:103A40004FF0004302E06FF0010253101AEB060042
:103A50004CEB085110EB0A0041EB0B01BDE8F04DB7
:103A600000F05BB8C1F30A52C1F3130140F2FF3317
:103A700041F480119A4202DA00200146704740F278
:103A800033439A42A2F2334202DC524200F023B89E
:103A900000F012B8064C074D06E0E06840F0010364
:103AA00094E8070098471034AC42F6D3FCF744FB87
:103AB000D0440008F0440008202A04DB203A00FA31
:103AC00002F1002070479140C2F1200320FA03F375
:103AD000194390407047202A04DB203A21FA02F073
:103AE0000021704721FA02F3D040C2F12002914038
:103AF000084319467047202A06DBCB17203A41FAC3
:103B000002F043EAE07306E041FA02F3D040C2F16A
:103B10002002914008431946704710B5141E73F1F6
:103B2000000408DA401C41F1000192185B411A437D
:103B300001D120F0010010BD2DE9F04D92469B46C9
:103B400011B1B1FA81F202E0B0FA80F2203290466F
:103B5000FFF7B2FF04460F4640EA0A0041EA0B01B4
:103B600053465A46084313D0114653EA010019D070
:103B7000C8F140025046FFF7AEFF05460E465046DC
:103B800059464246FFF798FF084305D0012004E05C
:103B900020463946BDE8F08D0020054346EAE07630
:103BA0002C4337430A986305E40AA0EB080000227F
:103BB000FD0A44EA47540A3002D500200146E9E7ED
:103BC000010510196941DDE9084500196941BDE8A1
:103BD000F04DA2E70FB4054B10B503A9044A0298B3
:103BE00000F0EEF810BC5DF814FB0000FF200008A8
:103BF0004C0000200FB4084B10B504A902AA03988A
:103C000000F0DEF8044602A9002000F05CFC20462B
:103C100010BC5DF814FB0000C744000802E008C8AF
:103C2000121F08C1002AFAD170477047002001E036
:103C300001C1121F002AFBD1704700002DE9FF5F70
:103C400082B00021DDE90430020DDDF840B003430D
:103C500018D044F61050A2F2FF32424315141198C6
:103C600001281FD0A5EB0B00401C5FEA000A4FF0B3
:103C700000064E4FDFF83891B046504615D5CAF1D0
:103C8000000413E0119801244AA3012801D16FEA2E
:103C90000B010298119AC0E90031C0E9024206B056
:103CA000BDE8F09FCBF10000DFE704460021404A69
:103CB000491842EB0450CDE9001012E0E00707D0AC
:103CC00032463B4640464946FFF7EBFD8046894673
:103CD00032463B4610461946FFF7E3FD06460F46BF
:103CE0006410002CEAD1DDE90401DDE90023BAF11A
:103CF000000F06DAFFF7D5FD42464B46FFF7D1FD30
:103D000005E0FFF740FE42464B46FFF73CFE044607
:103D10000E460022284BFFF77DFC03D84FF0FF3002
:103D2000014607E00022254B20463146FFF712FDF1
:103D3000FFF798FE102409E0002C0ADB0A2200237A
:103D4000FFF7A0FC039B30321A55641E50EA0102B3
:103D5000F2D1641C039AC4F111031444119A012A8C
:103D600003D0012208430DD10AE0084304D000200B
:103D70004FF0110B119072E7A3EB0B056D1E0DE0D8
:103D80005B4504DD4FF0000205F1010504E003DAB4
:103D90004FF00002A5F10105002AECD0029811991C
:103DA000C0E90231C0E9004579E700000000144095
:103DB0000000F03F300000000000F0430000E03F52
:103DC0002DE9FF4F95B09A46884606460025EEE15C
:103DD000252877D100242746F94A0121039400E0E1
:103DE000044316F8013F203B01FA03F01042F7D1DB
:103DF00030782A2811D06FF02F033078A0F13002EC
:103E0000092A16D8039A44F0020402EB820203EB5B
:103E100042021044761C0390EFE758F8042B0392FB
:103E2000002A03DA504244F40054039044F00204A0
:103E3000761C30782E2816D116F8010F44F00404B1
:103E40002A280DD06FF02F023078A0F13003092B13
:103E500009D807EB870302EB4303C718761CF3E787
:103E600058F8047B761C30786C280FD006DC4C2880
:103E700017D068280DD06A2814D104E0742810D017
:103E80007A280FD10DE044F400140AE044F48014C1
:103E900001E044F440147278824202D104F58014A7
:103EA000761C761C307866280BD013DC582877D027
:103EB00009DC002875D04528F6D04628F4D04728DC
:103EC0001AD193E118E0632835D0642879D06528A9
:103ED00012D18BE1702873D008DC6728F1D06928F3
:103EE0006FD06E280DD06F2806D1ACE073282CD08F
:103EF000752874D0782853D05246179990476D1C76
:103F000054E1C4F30250022809D003280DD0D8F898
:103F1000001004280DD00D6008F1040846E1D8F81F
:103F20000010EA17C1E90052F6E7D8F800100D803A
:103F3000F2E70D70F0E718F8041B8DF80010002070
:103F40008DF80100EB46012003E058F804BB4FF068
:103F5000FF3061074FF0000102D40DE009F10101CB
:103F60008946B9420FDA8145F8DB1BF809100029B0
:103F7000F4D108E009F1010189468142FADB1BF81E
:103F800009100029F6D103985346A0EB09072146F2
:103F90003846179A00F080FA284400EB090507E03C
:103FA00044E008E10DE01BF8010B524617999047D9
:103FB000B9F10109F7D2534621463846179AF2E083
:103FC00039E00A21C4F302524FF0000B0091022A9B
:103FD00006D058F8040BC117032A09D00AE023E0E1
:103FE00008F1070020F00702F2E80201904605E020
:103FF00000B2C117042A01D140B2C117002906DA64
:104000000A460021404261EB02012D2202E0220516
:1040100004D52B228DF80420012203E0E20701D011
:104020002022F7E7914657E00A2100E010214FF0E7
:10403000000B00910BE010214FF0000B44F0040442
:104040000827009103E008204FF0000B0090C4F314
:104050000252022A05D058F8040B0021032A08D086
:1040600008E008F1070020F00702F2E8020190469C
:1040700003E080B2042A00D1C0B24FF00009220749
:104080002AD53278702A07D0DDF800C08CF0100CE9
:104090005CEA0B0C05D00EE040228DF804200122D2
:1040A00008E050EA010306D030238DF804308DF883
:1040B000052002229146009B83F0080353EA0B037C
:1040C0000AD150EA010201D1620705D530228DF8EC
:1040D00004204FF001097F1E3278582A04D039A2FB
:1040E0000C920CAA02920BE03BA2F9E75B46009A05
:1040F000FFF7C8FA0C9B9B5C029A521E0292137047
:1041000050EA0102F2D1029804A9081A00F1200B2A
:10411000600702D524F4803400E001275F4502DD0A
:10412000A7EB0B0000E0002000EB0B0100900398D0
:104130004944401A0390E00306D453462146179A97
:10414000039800F0A9F90544002706E001A85246AB
:10415000C05D179990476D1C7F1C4F45F6DBE0034F
:104160000CD553462146179A039800F095F905445B
:1041700004E030205246179990476D1C0099481E64
:1041800000900029F5DC08E0029802995246007878
:10419000491C0291179990476D1CBBF10001ABF1CE
:1041A000010BF1DC5BE100F065F90544761C307829
:1041B00000287FF40DAE19B02846BDE8F08F00004E
:1041C00009280100303132333435363738396162ED
:1041D00063646566000000003031323334353637B1
:1041E000383941424344454600000000600700D48E
:1041F000062708F1070020F00700F0E802238046B8
:1042000003F0004C5FEA0C0001D097A009E0200504
:1042100001D596A005E0E00701D095A001E0AFF23E
:104220004C001390307823F0004365280CD006DC56
:10423000452809D046281DD047287FD13BE0662875
:1042400018D067287AD136E00021112F01DB112028
:1042500000E0781CCDE9000104A90CA8FFF7EEFCF2
:10426000DDE90D010C9A4FF0000B07F101091092E6
:1042700000914EE04FF000400097CDE9011004A9F5
:104280000CA8FFF7DBFCDDE90D020C9B0F994FF04A
:10429000000B91461093009211B9791C00EB0109B3
:1042A000B7EB090003D4C0F1FF3B07F10109A9EB0B
:1042B0000700019042E0012F00DA01270021112FB1
:1042C00001DD112000E03846CDE9000104A90CA869
:1042D000FFF7B4FCDDE90D010C9A00914FF0000BE3
:1042E000B946109221070FD4009A4A4503DA914645
:1042F00001E0A9F10109B9F1010F05DD109AA9F159
:104300000101515C3029F4D0B84202DA10F1040FF7
:1043100003DA0121CDE9011010E0002803DC834419
:10432000A9EB000102E0411C494500DD8946A0EBF4
:104330000B00401C01904FF000400290200705D474
:104340000198484502DB4FF0FF30019000208DF8C6
:104350004B0002980DF14B07B0F1004F25D0022021
:104360000C902B200D90029800280CDA404202900D
:104370002D200D9007E00A210298FFF76DF93031EA
:10438000029007F8011D0C99481E0C900029F2DCE0
:1043900002980028EFD1791E0D980870307800F04F
:1043A000200040F0450007F8020D11A8C01BC01DF9
:1043B00002901398007800B1012000EB09010198E8
:1043C00001EBE071029801440398401A401E0390EB
:1043D000E00306D453462146179A039800F05CF890
:1043E00005441398007818B15246179990476D1CF0
:1043F000E00323D553462146179A039800F04CF862
:1044000005441BE0BBF1000F07DB0098584504DDB5
:104410001098179910F80B0001E0179930205246B8
:10442000904701980BF1010B401E05F10105019029
:1044300004D12E205246179990476D1CB9F1000106
:10444000A9F10109DEDC05E017F8010B52461799C6
:1044500090476D1C0299481E02900029F4DC5346D7
:104460002146179A03989EE62D0000002B000000BD
:10447000200000002DE9F041044600251E461746A5
:10448000880404D405E039462020B0476D1C641E22
:10449000F9D52846BDE8F0812DE9F0410446002514
:1044A0001E469046C80301D5302700E02027880427
:1044B00004D505E041463846B0476D1C641EF9D569
:1044C0002846BDE8F0810A68531C0B6010707047E5
:1044D000F044000800000020500000001C3C0008D0
:1044E0004045000850000020980800002C3C0008BF
:1044F00000A24A04000000000000000001020304C2
:104500000607080900000000010203040102030479
:104510000607080902040608000000000000000069
:10452000000000000000000000000000000000008B
:10453000000000000000000000000000000000007B
:0400000508000131BD
:00000001FF
